{
  "contractName": "MagnumToken",
  "abi": [
    {
      "inputs": [],
      "stateMutability": "nonpayable",
      "type": "constructor"
    },
    {
      "inputs": [
        {
          "internalType": "address",
          "name": "",
          "type": "address"
        }
      ],
      "name": "TokenOwnersList",
      "outputs": [
        {
          "internalType": "uint256",
          "name": "",
          "type": "uint256"
        }
      ],
      "stateMutability": "view",
      "type": "function",
      "constant": true
    },
    {
      "inputs": [],
      "name": "TotalMagnumToken",
      "outputs": [
        {
          "internalType": "uint256",
          "name": "",
          "type": "uint256"
        }
      ],
      "stateMutability": "view",
      "type": "function",
      "constant": true
    },
    {
      "inputs": [
        {
          "internalType": "uint256",
          "name": "amount",
          "type": "uint256"
        }
      ],
      "name": "buyToken",
      "outputs": [],
      "stateMutability": "payable",
      "type": "function",
      "payable": true
    },
    {
      "inputs": [
        {
          "internalType": "address",
          "name": "_address",
          "type": "address"
        }
      ],
      "name": "checkOwnTokens",
      "outputs": [
        {
          "internalType": "uint256",
          "name": "",
          "type": "uint256"
        }
      ],
      "stateMutability": "view",
      "type": "function",
      "constant": true
    },
    {
      "inputs": [],
      "name": "BlanceOfContract",
      "outputs": [
        {
          "internalType": "uint256",
          "name": "",
          "type": "uint256"
        }
      ],
      "stateMutability": "view",
      "type": "function",
      "constant": true
    },
    {
      "inputs": [],
      "name": "TransferBalance",
      "outputs": [],
      "stateMutability": "nonpayable",
      "type": "function"
    }
  ],
  "bytecode": "0x6080604052642c4ef2f0ae60005534801561001957600080fd5b5033600260006101000a81548173ffffffffffffffffffffffffffffffffffffffff021916908373ffffffffffffffffffffffffffffffffffffffff16021790555061078c8061006a6000396000f3fe6080604052600436106100555760003560e01c8063272e14b81461005a5780632d296bf11461007157806387cf4dd01461008d578063ab1cd8d1146100ca578063bfdb5f85146100f5578063fdbfdeb714610120575b600080fd5b34801561006657600080fd5b5061006f61015d565b005b61008b6004803603810190610086919061040c565b610258565b005b34801561009957600080fd5b506100b460048036038101906100af9190610497565b610362565b6040516100c191906104d3565b60405180910390f35b3480156100d657600080fd5b506100df6103ab565b6040516100ec91906104d3565b60405180910390f35b34801561010157600080fd5b5061010a6103b3565b60405161011791906104d3565b60405180910390f35b34801561012c57600080fd5b5061014760048036038101906101429190610497565b6103b9565b60405161015491906104d3565b60405180910390f35b3373ffffffffffffffffffffffffffffffffffffffff16600260009054906101000a900473ffffffffffffffffffffffffffffffffffffffff1673ffffffffffffffffffffffffffffffffffffffff16146101ed576040517f08c379a00000000000000000000000000000000000000000000000000000000081526004016101e49061054b565b60405180910390fd5b600260009054906101000a900473ffffffffffffffffffffffffffffffffffffffff1673ffffffffffffffffffffffffffffffffffffffff166108fc479081150290604051600060405180830381858888f19350505050158015610255573d6000803e3d6000fd5b50565b600080541161029c576040517f08c379a0000000000000000000000000000000000000000000000000000000008152600401610293906105b7565b60405180910390fd5b662386f26fc10000816102af9190610606565b3410156102f1576040517f08c379a00000000000000000000000000000000000000000000000000000000081526004016102e8906106ac565b60405180910390fd5b8060008082825461030291906106cc565b9250508190555080600160003373ffffffffffffffffffffffffffffffffffffffff1673ffffffffffffffffffffffffffffffffffffffff16815260200190815260200160002060008282546103589190610700565b9250508190555050565b6000600160008373ffffffffffffffffffffffffffffffffffffffff1673ffffffffffffffffffffffffffffffffffffffff168152602001908152602001600020549050919050565b600047905090565b60005481565b60016020528060005260406000206000915090505481565b600080fd5b6000819050919050565b6103e9816103d6565b81146103f457600080fd5b50565b600081359050610406816103e0565b92915050565b600060208284031215610422576104216103d1565b5b6000610430848285016103f7565b91505092915050565b600073ffffffffffffffffffffffffffffffffffffffff82169050919050565b600061046482610439565b9050919050565b61047481610459565b811461047f57600080fd5b50565b6000813590506104918161046b565b92915050565b6000602082840312156104ad576104ac6103d1565b5b60006104bb84828501610482565b91505092915050565b6104cd816103d6565b82525050565b60006020820190506104e860008301846104c4565b92915050565b600082825260208201905092915050565b7f596f7520417265204e6f74204f776e6572202121000000000000000000000000600082015250565b60006105356014836104ee565b9150610540826104ff565b602082019050919050565b6000602082019050818103600083015261056481610528565b9050919050565b7f4e6f7420656e6f75676820746f6b656e00000000000000000000000000000000600082015250565b60006105a16010836104ee565b91506105ac8261056b565b602082019050919050565b600060208201905081810360008301526105d081610594565b9050919050565b7f4e487b7100000000000000000000000000000000000000000000000000000000600052601160045260246000fd5b6000610611826103d6565b915061061c836103d6565b9250817fffffffffffffffffffffffffffffffffffffffffffffffffffffffffffffffff0483118215151615610655576106546105d7565b5b828202905092915050565b7f596f75206d7573742070617920302e3030352065746865720000000000000000600082015250565b60006106966018836104ee565b91506106a182610660565b602082019050919050565b600060208201905081810360008301526106c581610689565b9050919050565b60006106d7826103d6565b91506106e2836103d6565b9250828210156106f5576106f46105d7565b5b828203905092915050565b600061070b826103d6565b9150610716836103d6565b9250827fffffffffffffffffffffffffffffffffffffffffffffffffffffffffffffffff0382111561074b5761074a6105d7565b5b82820190509291505056fea26469706673582212203fe82cca78393466f60e4d9de3b2a6b27e0df7b564cded68a695eff45028677b64736f6c634300080d0033",
  "immutableReferences": {},
  "source": "// SPDX-License-Identifier: MIT\r\npragma solidity >=0.4.22 <0.9.0;\r\n\r\ncontract MagnumToken {\r\n    uint256 public TotalMagnumToken = 190303105198;\r\n    mapping(address => uint256) public TokenOwnersList;\r\n    address payable private owner;\r\n\r\n    constructor() {\r\n        owner = payable(msg.sender);\r\n    }\r\n\r\n    function buyToken(uint256 amount) external payable {\r\n        require(TotalMagnumToken > 0, \"Not enough token\");\r\n        require(msg.value >= amount * 0.01 ether, \"You must pay 0.005 ether\");\r\n        TotalMagnumToken -= amount;\r\n        TokenOwnersList[msg.sender] += amount;\r\n    }\r\n\r\n    function checkOwnTokens(address _address) external view returns (uint256) {\r\n        return TokenOwnersList[_address];\r\n    }\r\n\r\n    function BlanceOfContract() public view returns (uint256) {\r\n        return address(this).balance;\r\n    }\r\n\r\n    function TransferBalance() public {\r\n        require(owner == msg.sender, \"You Are Not Owner !!\");\r\n        owner.transfer((address(this).balance));\r\n    }\r\n}",
  "sourcePath": "e:\\Codes\\Blockchain\\magnum-app\\contracts\\MagnumToken.sol",
  "compiler": {
    "name": "solc",
    "version": "0.8.13+commit.abaa5c0e.Emscripten.clang"
  },
  "schemaVersion": "3.4.9",
  "updatedAt": "2022-11-17T11:58:04.047Z",
  "networkType": "ethereum",
  "devdoc": {
    "kind": "dev",
    "methods": {},
    "version": 1
  },
  "userdoc": {
    "kind": "user",
    "methods": {},
    "version": 1
  }
}